:100000000C942A000C9434000C9434000C943400AA
:100010000C9434000C9434000C9434000C94340090
:100020000C9434000C9434000C9434000C94340080
:100030000C9434000C9434000C9434000C94340070
:100040000C9434000C9434000C9434000C94340060
:100050000C94340011241FBECFE5D4E0DEBFCDBF29
:100060000E94B7010C9411020C9400009FEF9ABB00
:1000700017BA8FE784BB91BB1BBA98BB95BB98BBE3
:1000800080E00895813051F0813030F0823041F0CD
:10009000833049F083E008956ABB03C067BB01C0A9
:1000A00064BB80E0089561BB80E00895813051F029
:1000B000813030F0823041F0833049F083E00895A0
:1000C0006BBB03C068BB01C065BB80E0089562BB29
:1000D00080E00895813061F0813030F0823061F04D
:1000E000833079F083E008958BB380958BBB07C094
:1000F00088B3809588BB03C085B3809585BB80E0BD
:10010000089582B3809582BB80E00895FB0161155C
:10011000710511F482E00895813051F0813030F0A2
:10012000823041F0833051F083E0089589B303C0F9
:1001300086B301C083B3808380E0089580B3808359
:1001400080E00895413011F083E00895813091F00E
:10015000813028F08230C9F0833009F522C02AB3FB
:1001600081E090E002C0880F991F6A95E2F7282B82
:100170002ABB15C027B381E090E002C0880F991F09
:100180006A95E2F7282B27BB0AC024B381E090E0F0
:1001900002C0880F991F6A95E2F7282B24BB80E0E4
:1001A000089521B381E090E002C0880F991F6A95FD
:1001B000E2F7282B21BB80E00895982F82B389179E
:1001C00008F475C0683008F072C04130B1F5913064
:1001D00099F0913030F09230D1F0933009F065C051
:1001E00021C02BB381E090E002C0880F991F6A956F
:1001F000E2F7282B2BBB59C028B381E090E002C066
:10020000880F991F6A95E2F7282B28BB4EC025B3AB
:1002100081E090E002C0880F991F6A95E2F7282BD1
:1002200025BB43C022B381E090E002C0880F991F34
:100230006A95E2F7282B22BB38C0913099F09130B3
:1002400028F09230D9F0933081F524C02BB381E0AF
:1002500090E002C0880F991F6A95E2F7809582238B
:100260008BBB23C028B381E090E002C0880F991FA8
:100270006A95E2F78095822388BB17C025B381E099
:1002800090E002C0880F991F6A95E2F7809582235B
:1002900085BB0BC022B381E090E002C0880F991F9C
:1002A0006A95E2F78095822382BB80E0089583E01F
:1002B0000895982F82B38917C0F16830B0F5913056
:1002C00091F0913028F09230C9F0933061F521C05F
:1002D0002BB381E090E002C0880F991F6A95E2F786
:1002E00028272BBB20C028B381E090E002C0880FF4
:1002F000991F6A95E2F7282728BB15C025B381E02E
:1003000090E002C0880F991F6A95E2F7282725BB65
:100310000AC022B381E090E002C0880F991F6A955D
:10032000E2F7282722BB80E0089583E0089581301A
:1003300051F0813030F0823041F0833079F080E04C
:10034000089589B303C086B301C083B390E002C0AF
:10035000959587956A95E2F78170089580B390E04E
:1003600002C0959587956A95E2F7817008950F937D
:100370001F930E94360080E06FEF0E94420081E0F0
:1003800060E00E94420080E060E00E94560081E050
:100390006FEF0E94560081E060E00E949701182FE5
:1003A00081E061E00E949701082F81E062E00E94F5
:1003B0009701112361F480E060E041E00E94DD00DC
:1003C00081E060E00E9497018823D1F31FC00023E1
:1003D00061F480E061E041E00E94DD0081E061E0E5
:1003E0000E9497018823D1F311C0882379F461E03A
:1003F00041E00E94DD0080E060E041E00E94DD001D
:1004000081E062E00E9497018823D1F380E061E0FF
:1004100040E00E94DD0080E060E040E00E94DD00FE
:06042000BACFF894FFCFF3
:00000001FF
